{
  "_format": "hh-sol-artifact-1",
  "contractName": "TournamentManager",
  "sourceName": "contracts/Tournament.sol",
  "abi": [
    {
      "anonymous": false,
      "inputs": [
        {
          "indexed": false,
          "internalType": "uint256",
          "name": "tournamentId",
          "type": "uint256"
        },
        {
          "indexed": false,
          "internalType": "bytes32",
          "name": "user",
          "type": "bytes32"
        },
        {
          "indexed": false,
          "internalType": "uint256",
          "name": "newScore",
          "type": "uint256"
        }
      ],
      "name": "ScoreUpdated",
      "type": "event"
    },
    {
      "anonymous": false,
      "inputs": [
        {
          "indexed": false,
          "internalType": "uint256",
          "name": "tournamentId",
          "type": "uint256"
        },
        {
          "indexed": false,
          "internalType": "bytes32[]",
          "name": "users_name",
          "type": "bytes32[]"
        }
      ],
      "name": "TournamentCreated",
      "type": "event"
    },
    {
      "inputs": [
        {
          "internalType": "uint256",
          "name": "_tournamentId",
          "type": "uint256"
        },
        {
          "internalType": "bytes32[]",
          "name": "users_name",
          "type": "bytes32[]"
        }
      ],
      "name": "createTournament",
      "outputs": [],
      "stateMutability": "nonpayable",
      "type": "function"
    },
    {
      "inputs": [
        {
          "internalType": "uint256",
          "name": "_tournamentId",
          "type": "uint256"
        },
        {
          "internalType": "bytes32",
          "name": "_user",
          "type": "bytes32"
        }
      ],
      "name": "getScore",
      "outputs": [
        {
          "internalType": "uint256",
          "name": "",
          "type": "uint256"
        }
      ],
      "stateMutability": "view",
      "type": "function"
    },
    {
      "inputs": [
        {
          "internalType": "uint256",
          "name": "_tournamentId",
          "type": "uint256"
        }
      ],
      "name": "getWinner",
      "outputs": [
        {
          "internalType": "bytes32",
          "name": "",
          "type": "bytes32"
        }
      ],
      "stateMutability": "view",
      "type": "function"
    },
    {
      "inputs": [
        {
          "internalType": "uint256",
          "name": "",
          "type": "uint256"
        }
      ],
      "name": "tournaments",
      "outputs": [
        {
          "internalType": "uint256",
          "name": "id",
          "type": "uint256"
        },
        {
          "internalType": "bool",
          "name": "exists",
          "type": "bool"
        }
      ],
      "stateMutability": "view",
      "type": "function"
    },
    {
      "inputs": [
        {
          "internalType": "uint256",
          "name": "_tournamentId",
          "type": "uint256"
        },
        {
          "internalType": "bytes32",
          "name": "_user",
          "type": "bytes32"
        },
        {
          "internalType": "uint256",
          "name": "_score",
          "type": "uint256"
        }
      ],
      "name": "updateScore",
      "outputs": [],
      "stateMutability": "nonpayable",
      "type": "function"
    }
  ],
  "bytecode": "0x608060405234801561001057600080fd5b5061082c806100206000396000f3fe608060405234801561001057600080fd5b50600436106100575760003560e01c80634129b2c91461005c5780637503e1b714610082578063adb1f640146100c1578063b4a29048146100d4578063f7e25c14146100e9575b600080fd5b61006f61006a3660046105ed565b6100fc565b6040519081526020015b60405180910390f35b6100ac6100903660046105ed565b6000602081905290815260409020805460039091015460ff1682565b60408051928352901515602083015201610079565b61006f6100cf366004610606565b6102b0565b6100e76100e2366004610628565b610369565b005b6100e76100f736600461066a565b610459565b60008181526020819052604081206003015460ff166101365760405162461bcd60e51b815260040161012d90610734565b60405180910390fd5b600082815260208190526040902060018101546101955760405162461bcd60e51b815260206004820152601a60248201527f4e6f20757365727320696e2074686520746f75726e616d656e74000000000000604482015260640161012d565b6000816001016000815481106101ad576101ad61076b565b60009182526020808320909101548083526002850190915260409091205490915060015b60018401548110156102575760008460020160008660010184815481106101fa576101fa61076b565b9060005260206000200154815260200190815260200160002054905082811115610244578460010182815481106102335761023361076b565b906000526020600020015493508092505b508061024f81610781565b9150506101d1565b50806002146102a85760405162461bcd60e51b815260206004820152601b60248201527f4e6f2077696e6e657220696e2074686520746f75726e616d656e740000000000604482015260640161012d565b509392505050565b60008281526020819052604081206003015460ff166102e15760405162461bcd60e51b815260040161012d90610734565b60008381526020819052604090206102f98184610531565b6103455760405162461bcd60e51b815260206004820152601d60248201527f55736572206973206e6f7420696e2074686520746f75726e616d656e74000000604482015260640161012d565b50506000828152602081815260408083208484526002019091529020545b92915050565b60008381526020819052604090206003015460ff1661039a5760405162461bcd60e51b815260040161012d90610734565b60008381526020819052604090206103b28184610531565b6103fe5760405162461bcd60e51b815260206004820152601d60248201527f55736572206973206e6f7420696e2074686520746f75726e616d656e74000000604482015260640161012d565b600083815260028201602090815260409182902084905581518681529081018590529081018390527ffe3b84db676742d3f067368763fc3858696bff1ef7baec592813188ead65f3b29060600160405180910390a150505050565b60008281526020819052604090206003015460ff16156104bb5760405162461bcd60e51b815260206004820152601960248201527f546f75726e616d656e7420616c72656164792065786973747300000000000000604482015260640161012d565b600082815260208181526040909120838155825190916104e291600184019185019061058d565b5060038101805460ff191660011790556040517fcf2b8836cbef7485346d147a7a5601200e85221e03166ba54202f02f214765999061052490859085906107a8565b60405180910390a1505050565b6000805b600184015481101561058357828460010182815481106105575761055761076b565b906000526020600020015403610571576001915050610363565b8061057b81610781565b915050610535565b5060009392505050565b8280548282559060005260206000209081019282156105c8579160200282015b828111156105c85782518255916020019190600101906105ad565b506105d49291506105d8565b5090565b5b808211156105d457600081556001016105d9565b6000602082840312156105ff57600080fd5b5035919050565b6000806040838503121561061957600080fd5b50508035926020909101359150565b60008060006060848603121561063d57600080fd5b505081359360208301359350604090920135919050565b634e487b7160e01b600052604160045260246000fd5b6000806040838503121561067d57600080fd5b8235915060208084013567ffffffffffffffff8082111561069d57600080fd5b818601915086601f8301126106b157600080fd5b8135818111156106c3576106c3610654565b8060051b604051601f19603f830116810181811085821117156106e8576106e8610654565b60405291825284820192508381018501918983111561070657600080fd5b938501935b828510156107245784358452938501939285019261070b565b8096505050505050509250929050565b60208082526019908201527f546f75726e616d656e7420646f6573206e6f7420657869737400000000000000604082015260600190565b634e487b7160e01b600052603260045260246000fd5b6000600182016107a157634e487b7160e01b600052601160045260246000fd5b5060010190565b6000604082018483526020604081850152818551808452606086019150828701935060005b818110156107e9578451835293830193918301916001016107cd565b509097965050505050505056fea2646970667358221220f7bbafebc28818500bd641e5fb8687c73663e488c0cf0c284971a3367bb6a2fd64736f6c63430008120033",
  "linkReferences": {},
  "deployedLinkReferences": {}
}